:020000040800F2
:1000000000000120050300080B030008E9090008AF
:100010000D0A0008310A0008550A00080000000017
:100020000000000000000000000000007D03000848
:100030008303000800000000590800088509000833
:10004000AD030008AD030008AD030008AD030008D0
:10005000AD030008AD030008AD030008AD030008C0
:10006000AD030008AD030008AD030008AD030008B0
:10007000AD030008AD030008AD030008AD030008A0
:10008000AD030008AD030008AD0300080000000048
:10009000000000000000000000000000AD030008A8
:1000A000AD030008AD030008AD030008AD03000870
:1000B000AD030008AD030008AD030008AD03000860
:1000C000AD030008AD030008AD030008AD03000850
:1000D000AD030008AD030008AD03000800000000F8
:1000E000AD030008AD030008AD03000800000000E8
:1000F000000000000000000000000000AD03000848
:1001000000000000AD030008AD030008AD030008C7
:1001100000000000000000000000000000000000DF
:10012000AD030008AD030008AD030008AD030008EF
:10013000AD03000800000000000000000000000007
:10014000000000000000000000000000AD030008F7
:10015000AD030008AD030008AD030008AD030008BF
:10016000AD030008AD03000800000000000000001F
:10017000000000000000000000000000000000007F
:1001800000000000AD0300080000000000000000B7
:10019000AD03000880B596B000AF00F037F94F4BC3
:1001A0007B6524E07B6D1A1D7A651B683B647B6D63
:1001B0001A1D7A651B68FB637B6D1A1D7A651B68C7
:1001C000BB633B6C7B63FB6B3B63BB6BFB623B6B5F
:1001D000BB6207E07A6B131D7B63BB6A191DB962B2
:1001E00012681A60FA6ABB6A9A42F3D800BF7B6D44
:1001F0003B4A9342D6D33B4B3B651AE03B6D1A1DFD
:100200003A651B68BB643B6D1A1D3A651B687B64CD
:10021000BB6C7B627B6C3B627B6AFB6104E0FB69CD
:100220001A1DFA6100221A603A6AFB699A42F6D8EE
:1002300000BF3B6D2C4A9342E0D300F0F5F83A1D25
:1002400007F108031146184600F0CEF8274A284B5C
:10025000D31A9B103B610023FB6007E0244AFB6834
:1002600052F823309847FB680133FB603A69FB681A
:100270009A42F3DC1F4A204BD31A9B103B610023A8
:10028000FB6007E01C4AFB6852F823309847FB6884
:100290000133FB603A69FB689A42F3DC00BFBB683C
:1002A0007A681146184600F06BF9F864134A144B4B
:1002B000D31A9B10BB61BB697B6108E07B69013B82
:1002C0000F4A52F8233098477B69013B7B617B6979
:1002D000002BF3DC00BFF86C00F080F8B4030008DA
:1002E000CC030008CC030008DC030008DC03000892
:1002F000DC030008DC030008DC030008DC03000862
:10030000DC0300082548004700BF80B400AFFEE7CB
:100310001EF0040F0CBFEFF30880EFF30980714665
:100320001F4A104700BF80B483B000AF78603960C7
:10033000FEE780B400AFFEE71EF0040F0CBFEFF342
:100340000880EFF309807146164A104700BF80B459
:1003500083B000AF78603960FEE71EF0040F0CBF79
:10036000EFF30880EFF3098071460F4A104700BF92
:1003700080B483B000AF78603960FEE780B400AF2E
:10038000FEE780B400AFFEE780B400AFFEE780B4C4
:1003900000AF00BFBD4680BC70470000950100085B
:1003A000270300084F0300087103000880B400AF62
:0203B000FEE766
:1003B400D41500080000002024000020D4150008F3
:1003C4000000001000000010240000207C00002029
:0803D400000000100000001001
:1003DC0080B582B000AF786000F03CF880B483B098
:1003EC0000AF786039607B6801221A603B68034A71
:1003FC001A6000BF0C37BD4680BC7047000000205F
:10040C0080B500AF00F02AF8024B034A9A6000BF97
:10041C0080BD00BF00ED00E00000000880B500AF1B
:10042C0000F028F800BF80BD80B400AFBFF34F8F41
:10043C0000BF064BDB6803F4E0620449044B134332
:10044C00CB60BFF34F8F00BF00BFFDE700ED00E0B6
:10045C000400FA0580B500AFFFF7E6FF80B400AFEB
:10046C00034B4FF000629A6000BFBD4680BC7047E2
:10047C0000ED00E080B487B000AF00233B610023A7
:10048C007B610223FB600023BB6002237B60344B47
:10049C009B6803F00C033B613B69082B11D03B6953
:1004AC00082B44D83B69002B03D03B69042B04D0A8
:1004BC003DE02C4B2C4A1A603DE02A4B2B4A1A602B
:1004CC0039E0274B5B689B0D03F00103BB60244BA9
:1004DC005B6803F03F037B60BB68002B0CD0234AA6
:1004EC007B68B2FBF3F31E4A52689209C2F308020E
:1004FC0002FB03F37B610BE01B4A7B68B2FBF3F35B
:10050C00174A52689209C2F3080202FB03F37B619B
:10051C00134B5B681B0C03F0030301335B00FB60A4
:10052C007A69FB68B2FBF3F30E4A136003E00D4BE0
:10053C000D4A1A6000BF0A4B9B681B0903F00F039E
:10054C000B4AD35C3B61074B1A683B6922FA03F3F5
:10055C00044A136000BF1C37BD4680BC704700BF07
:10056C0000380240080000200024F40000127A0039
:10057C008415000880B500AF00F0AAFA002000F046
:10058C00B5FA012000F0B2FA022000F0AFFA002117
:10059C00412000F0FFFA0121412000F0FBFA02217A
:1005AC00412000F0F7FA0321412000F0F3FA00F0AB
:1005BC002BFB00F0EBF9074800F074F800F078F82A
:1005CC004FF47A7000F036F800F060FA00F007F89B
:1005DC00FEE700BF006C012080B400AFFEE780B5E1
:1005EC0000AF0021412000F0EFFA4FF47A7000F0D8
:1005FC00FDF8F6E780B500AF0121412000F0E4FAE8
:10060C004FF4FA7000F0F2F8F6E780B500AF022173
:10061C00412000F0D9FAFA2000F0E8F8F7E780B5AD
:10062C0000AF0321412000F0CFFA7D2000F0DEF86E
:10063C00F7E7000080B487B000AF7860164B7B61A1
:10064C00164B3B617B691B6803F07F427B691A6028
:10065C00134A7B68B2FBF3F3013BFB607B691A68BE
:10066C00FB681A437B691A603B691B6843F0020202
:10067C003B691A603B691B6843F004023B691A60D2
:10068C003B691B6843F001023B691A6000BF1C37D1
:10069C00BD4680BC704700BF14E000E010E000E0F5
:1006AC000024F400034683F30888704700BF000061
:1006BC0080B485B000AF0023FB7309E0FB7B374AA5
:1006CC001B011344083300221A70FB7B0133FB73AC
:1006DC00FB7B042BF2D9314B314A1A602F4B314A38
:1006EC001A612E4B304A1A622C4B304A1A632B4B30
:1006FC002F4A1A64294B2F4ADA60284B2E4ADA61AA
:10070C00264B2E4ADA62254B2D4ADA63234B2D4AAF
:10071C00DA640023FB7337E0FB7B204A1B01134494
:10072C001B68BB60BB68043BBB60BB684FF080724E
:10073C001A60BB68043BBB60FB7B184A1B0113446B
:10074C000C331B681A46BB681A60BB68043BBB6061
:10075C00BB686FF002021A600023FB7108E0BB68F3
:10076C00043BBB60BB6800221A60FB790133FB7150
:10077C00FB790C2BF3D9FB7BBA6808491B010B44A2
:10078C001A60FB7B0133FB73FB7B042BC4D900BFCA
:10079C0000BF1437BD4680BC704700BF2C00002042
:1007AC000070012000800120007C012000780120D5
:1007BC0000740120E5050008EB050008010600089F
:1007CC00170600082B06000880B483B000AF064B58
:1007DC007B607B681B6843F080527B681A6000BFAB
:1007EC000C37BD4680BC704704ED00E080B582B08C
:1007FC0000AF78604FF0010080F31088104B1B782D
:10080C00002B15D00F4B1A680D4B1B7818467B68C4
:10081C001A440D4903010B4404331A60084B1B782E
:10082C00094A1B0113440833FF221A70FFF7CCFF4F
:10083C004FF0000080F3108800BF0837BD4680BD24
:10084C000C000020280000202C000020EFF3098071
:10085C0020E9F00F00B500F027F900F049F800F09E
:10086C0005F9B0E8F00F80F309885DF804EB7047E8
:10087C0000BF000080B400AF044B1B680133034A77
:10088C00136000BFBD4680BC704700BF280000202D
:10089C0080B483B000AF0123FB711BE0FB79124ADB
:1008AC001B01134408331B78002B10D0FB790E4A24
:1008BC001B01134404331A680C4B1B689A4206D173
:1008CC00FB79094A1B011344083300221A70FB7987
:1008DC000133FB71FB79042BE0D900BF00BF0C374F
:1008EC00BD4680BC704700BF2C00002028000020B3
:1008FC0080B483B000AFFF23FB710023BB7124E0F5
:10090C001A4B1B780133DAB2184B1A70174B1A7842
:10091C00174BA3FB021399080B469B000B44D31AED
:10092C00DAB2124B1A70114B1B78124A1B0113448A
:10093C0008331B78FB71FB79002B03D10B4B1B7815
:10094C00002B06D1BB790133BB71BB79042BD7D9F2
:10095C0000E000BFFB79002B02D0044B00221A7080
:10096C0000BF0C37BD4680BC704700BF0C00002098
:10097C00CDCCCCCC2C00002080B500AFFFF77AFF9B
:10098C00FFF786FFFFF720FF00BF80BD80B483B068
:10099C0000AF104B7B60104B3B607B681B6843F4D3
:1009AC0080327B681A607B681B6843F400327B687A
:1009BC001A607B681B6843F480227B681A603B6872
:1009CC001B6843F010023B681A6000BF0C37BD4631
:1009DC0080BC704724ED00E014ED00E080B500AF62
:1009EC0000F029FA044800F0C1F9044A032101205F
:1009FC0000F00CFAFEE700BF94150008A4150008DF
:100A0C0080B500AF00F017FA044800F0AFF9044AC3
:100A1C000321012000F0FAF9FEE700BF941500084D
:100A2C00B015000880B500AF00F005FA044800F0DE
:100A3C009DF9044A0321012000F0E8F9FEE700BF0C
:100A4C0094150008BC15000880B500AF00F0F3F950
:100A5C00044800F08BF9044A0321012000F0D6F978
:100A6C00FEE700BF94150008C815000880B400AF5D
:100A7C00044B1B78044A1B0113441B681846BD46E3
:100A8C0080BC70470C0000202C00002000B5FFF744
:100A9C00EDFF80F309885DF804EB4FF0020080F362
:100AAC001488704700BF000080B483B000AF78603A
:100ABC00054B1B78054A1B0113447A681A6000BF6A
:100ACC000C37BD4680BC70470C0000202C00002069
:100ADC0080B400AF044B1B68034A43F0010313605E
:100AEC0000BFBD4680BC70470038024080B485B062
:100AFC0000AF0346FB71FB795B09FB73FB7903F0D9
:100B0C001F03BB73FB7B032B36D801A252F823F0D7
:100B1C002D0B0008430B0008590B00086F0B000845
:100B2C00184B1B68BA7B012101FA02F21146154AD7
:100B3C000B43136021E0144B1B68BA7B012101FAB3
:100B4C0002F21146104A0B43136016E00F4B1B6860
:100B5C00BA7B012101FA02F211460C4A0B431360D5
:100B6C000BE00B4B1B68BA7B012101FA02F2114618
:100B7C00074A0B43136000E000BF00BF1437BD46AB
:100B8C0080BC704730380240343802404038024054
:100B9C004438024080B584B002AF03460A46FB716C
:100BAC001346BB71B979F879002300930023012215
:100BBC0000F04CF9B979FB790022184600F0A2F943
:100BCC0000BF0837BD4680BD80B584B000AF03467A
:100BDC000A46FB711346BB71BA79FB79114618466C
:100BEC0000F0D0F90346FB73FB7B002B0CBF0123F9
:100BFC000023DBB21A46B979FB79184600F082F96A
:100C0C0000BF1037BD4680BD80B584B002AF002355
:100C1C00FB7100230093002301220021422000F0ED
:100C2C0015F900230093002301220221422000F039
:100C3C000DF9142000F0F6F90023FB710AE0F979A4
:100C4C000023009300230122432000F0FFF8FB79DE
:100C5C000133FB71FB79072BF1D9382000F00AF82E
:100C6C000C2000F007F8012000F004F800BF083752
:100C7C00BD4680BD80B586B002AF0346FB71002334
:100C8C00FB7300220021422000F03CF9012000F00F
:100C9C00C9F901220221422000F034F9012000F0B0
:100CAC00C1F90023FB7317E0F97B002300930023A9
:100CBC000122432000F0CAF8FA79FB7B42FA03F3D5
:100CCC00DBB203F00103DAB2FB7B1946432000F0E0
:100CDC0019F9FB7B0133FB73FB7B072BE4D9012058
:100CEC0000F0A0F900220221422000F00BF90120B3
:100CFC0000F098F900BF1037BD4680BD80B586B0B6
:100D0C0002AF0346FB710023FB730122002142203A
:100D1C0000F0F8F801220221422000F0F3F8002341
:100D2C00FB7317E0F97B002300930023012243207F
:100D3C0000F08CF8FA79FB7B42FA03F3DBB203F098
:100D4C000103DAB2FB7B1946432000F0DBF8FB7B96
:100D5C000133FB73FB7B072BE4D9002202214220D9
:100D6C0000F0D0F800BF1037BD4680BD80B584B010
:100D7C0000AF78600023FB730BE0FB7B7A681344B5
:100D8C0093F90030DBB21846FFF7B8FFFB7B013359
:100D9C00FB73FB7B7A68134493F90030002BECD186
:100DAC0000BF00BF1037BD4680BD000080B584B0C9
:100DBC0000AF03460A46FB711346BB71FB79032B4C
:100DCC0019D801A252F823F0E50D0008EB0D00082C
:100DDC00F30D0008FB0D0008BB79FB730BE0BB792E
:100DEC004033FB7307E0BB791033FB7303E0BB7933
:100DFC005033FB7300BFFB7B63F07F03DBB2184601
:100E0C00FFF738FF00BF1037BD4680BD80B582B0FC
:100E1C0000AF03463A60FB710B46BB71BA79FB79A4
:100E2C0011461846FFF7C2FF3868FFF79FFF00BF57
:100E3C000837BD4680BD80B500AF0120FFF71AFF13
:100E4C0000210020FFF7B2FF00BF80BD90B484B03A
:100E5C0000AF0446084611461A462346FB7103466A
:100E6C00BB710B467B7113463B71FB79413BFB73AA
:100E7C00FB7B234A52F82330BB60BB681B68BA79F2
:100E8C005200032101FA02F2D2431A40BB681A60E5
:100E9C00BB681B687979BA79520001FA02F21A43DD
:100EAC00BB681A60BB685B68BA79012101FA02F26F
:100EBC00D2431A40BB685A60BB685B683979BA790F
:100ECC0001FA02F21A43BB685A60BB68DB68BA7954
:100EDC005200032101FA02F2D2431A40BB68DA60D5
:100EEC00BB68DB68397EBA79520001FA02F21A4308
:100EFC00BB68DA6000BF1037BD4690BC704700BFBE
:100F0C001000002080B485B000AF0346FB710B4687
:100F1C00BB7113467B71FB79413BFB73FB7B184A1E
:100F2C0052F82330BB60BB681B68BA7952000321AE
:100F3C0001FA02F21A40BB795B0022FA03F3012B8F
:100F4C0001D0002317E07B79012B09D1BB685B69C9
:100F5C007979BA7901FA02F21A43BB685A6109E04D
:100F6C00BB685B69BA79012101FA02F2D2431A40DB
:100F7C00BB685A61012318461437BD4680BC7047C4
:100F8C001000002080B485B000AF03460A46FB7108
:100F9C001346BB71FB79413BBB73BB7B204A52F8B8
:100FAC002330BB60BB681B68BA795200032101FA7D
:100FBC0002F21A40BB795B0022FA03F3012B0DD12C
:100FCC00BB685B69BA79012101FA02F21340002B6C
:100FDC0014BF01230023DBB2FB731AE0BB681B6850
:100FEC00BA795200032101FA02F21A40BB795B0074
:100FFC0022FA03F3002B0CD1BB681B69BA790121CF
:10100C0001FA02F21340002B0CBF01230023DBB2C8
:10101C00FB73FB7B18461437BD4680BC704700BF82
:10102C001000002090B587B000AF7860114B3B6189
:10103C00786800F0D9F804460F49386900F02CF9AB
:10104C0003461946204600F0DBF90346184600F02B
:10105C0073FA0346FB6000237B6102E07B6901337A
:10106C007B617A69FB689A42F8D300BF00BF1C37DA
:10107C00BD4690BDBD37863500007A4480F00040F7
:10108C0002E000BF81F0004142001FBF5FEA410354
:10109C0092EA030F7FEA226C7FEA236C6AD04FEA54
:1010AC001262D2EB1363C1BFD21841404840414099
:1010BC00B8BF5B42192B88BF704710F0004F40F44B
:1010CC00000020F07F4018BF404211F0004F41F467
:1010DC00000121F07F4118BF494292EA030F3FD033
:1010EC00A2F1010241FA03FC10EB0C00C3F1200346
:1010FC0001FA03F100F0004302D5494260EB4000D5
:10110C00B0F5000F13D3B0F1807F06D340084FEA3F
:10111C00310102F10102FE2A51D2B1F1004F40EB34
:10112C00C25008BF20F0010040EA0300704749009C
:10113C0040EB0000013A28BFB0F5000FEDD2B0FA39
:10114C0080FCACF1080CB2EB0C0200FA0CF0AABF5C
:10115C0000EBC25052421843BCBFD04018437047FA
:10116C0092F0000F81F4000106BF80F40000013200
:10117C00013BB5E74FEA41037FEA226C18BF7FEAD7
:10118C00236C21D092EA030F04D092F0000F08BF19
:10119C000846704790EA010F1CBF0020704712F000
:1011AC007F4F04D1400028BF40F00040704712F13F
:1011BC0000723CBF00F50000704700F0004343F0A4
:1011CC00FE4040F4000070477FEA226216BF0846DA
:1011DC007FEA23630146420206BF5FEA412390EA9D
:1011EC00010F40F4800070474FF0000304E000BF93
:1011FC0010F0004348BF40425FEA000C08BF704744
:10120C0043F0964301464FF000001CE050EA010207
:10121C0008BF70474FF000030AE000BF50EA01021C
:10122C0008BF704711F0004302D5404261EB410109
:10123C005FEA010C02BF84460146002043F0B6432E
:10124C0008BFA3F18053A3F50003BCFA8CF2083A53
:10125C00A3EBC25310DB01FA02FC634400FA02FC5C
:10126C00C2F12002BCF1004F20FA02F243EB020063
:10127C0008BF20F00100704702F1200201FA02FCC5
:10128C00C2F1200250EA4C0021FA02F243EB0200B8
:10129C0008BF20EADC7070474FF0FF0C1CEAD052FC
:1012AC001EBF1CEAD15392EA0C0F93EA0C0F6FD0BD
:1012BC001A4480EA010C400218BF5FEA41211ED09B
:1012CC004FF0006343EA501043EA5111A0FB013187
:1012DC000CF00040B1F5000F3EBF490041EAD3715C
:1012EC005B0040EA010062F17F02FD2A1DD8B3F1D8
:1012FC00004F40EBC25008BF20F00100704790F047
:10130C00000F0CF0004C08BF49024CEA502040EA98
:10131C0051207F3AC2BFD2F1FF0340EAC25070475E
:10132C0040F400004FF00003013A5DDC12F1190F9C
:10133C00DCBF00F000407047C2F10002410021FA0E
:10134C0002F1C2F1200200FA02FC5FEA310040F126
:10135C00000053EA4C0308BF20EADC70704792F09F
:10136C00000F00F0004C02BF400010F4000F013AD7
:10137C00F9D040EA0C0093F0000F01F0004C02BFD2
:10138C00490011F4000F013BF9D041EA0C018FE741
:10139C000CEAD15392EA0C0F18BF93EA0C0F0AD047
:1013AC0030F0004C18BF31F0004CD8D180EA01006D
:1013BC0000F00040704790F0000F17BF90F0004F06
:1013CC00084691F0000F91F0004F14D092EA0C0FE8
:1013DC0001D142020FD193EA0C0F03D14B0218BF7B
:1013EC00084608D180EA010000F0004040F0FE40C1
:1013FC0040F40000704740F0FE4040F4400070475D
:10140C004FF0FF0C1CEAD0521EBF1CEAD15392EADB
:10141C000C0F93EA0C0F69D0A2EB030280EA010CCB
:10142C0049024FEA402037D04FF0805343EA111164
:10143C0043EA10130CF000408B4238BF5B0042F1C2
:10144C007D024FF4000C8B4224BF5B1A40EA0C0067
:10145C00B3EB510F24BFA3EB510340EA5C00B3EB99
:10146C00910F24BFA3EB910340EA9C00B3EBD10F87
:10147C0024BFA3EBD10340EADC001B0118BF5FEAD9
:10148C001C1CE0D1FD2A3FF650AF8B4240EBC25002
:10149C0008BF20F0010070470CF0004C4CEA5020C3
:1014AC007F32C2BFD2F1FF0340EAC250704740F412
:1014BC0000004FF00003013A37E792F0000F00F004
:1014CC00004C02BF400010F4000F013AF9D040EA82
:1014DC000C0093F0000F01F0004C02BF490011F416
:1014EC00000F013BF9D041EA0C0195E70CEAD1530E
:1014FC0092EA0C0F08D142027FF47DAF93EA0C0FF5
:10150C007FF470AF084676E793EA0C0F04D14B02D8
:10151C003FF44CAF08466EE730F0004C18BF31F08A
:10152C00004CCAD130F000427FF45CAF31F0004384
:10153C007FF43CAF5FE700BF42000ED2B2F1FE4F2A
:10154C000BD34FF09E03B3EB126209D44FEA002386
:10155C0043F0004323FA02F070474FF0000070474D
:10156C0012F1610F01D1420202D14FF0FF307047EE
:10157C004FF00000704700BF0000000000000000AA
:10158C000102030406070809457863657074696FE6
:10159C006E203A2000000000486172646661756C30
:1015AC00740000004D656D4D616E61676500000053
:1015BC004275734661756C74000000005573616769
:0715CC00654661756C7400B7
:1015D40024000020000000000024F40001FFFFFFAD
:1015E400000002400004024000080240000C0240D7
:0415F40000100240A1
:040000050800019559
:00000001FF
